{
  "contractName": "Addition",
  "abi": [
    {
      "constant": true,
      "inputs": [],
      "name": "sum",
      "outputs": [
        {
          "internalType": "int256",
          "name": "",
          "type": "int256"
        }
      ],
      "payable": false,
      "stateMutability": "view",
      "type": "function"
    },
    {
      "constant": false,
      "inputs": [
        {
          "internalType": "int256",
          "name": "x",
          "type": "int256"
        },
        {
          "internalType": "int256",
          "name": "y",
          "type": "int256"
        }
      ],
      "name": "add",
      "outputs": [],
      "payable": false,
      "stateMutability": "nonpayable",
      "type": "function"
    }
  ],
  "bytecode": "0x60806040526000805534801561001457600080fd5b5060d0806100236000396000f3fe6080604052348015600f57600080fd5b506004361060325760003560e01c8063853255cc146037578063a5f3c23b146053575b600080fd5b603d6088565b6040518082815260200191505060405180910390f35b608660048036036040811015606757600080fd5b810190808035906020019092919080359060200190929190505050608e565b005b60005481565b808201600081905550505056fea265627a7a723158204e97440c40586fa371685f010f6168c4baee3e6503af3c55cfb7a6236e719a0e64736f6c63430005100032",
  "source": "//SPDX-License-Identifier: <SPDX-License>\r\npragma solidity >=0.5.0 <0.8.0;\r\n\r\ncontract Addition {\r\n  int public sum = 0;\r\n\r\n  function add (int x, int y) public {\r\n    sum = x + y;\r\n  }\r\n}\r\n\r\n",
  "sourcePath": "G:/Blockchain/AdditionContract/contracts/Addition.sol",
  "compiler": {
    "name": "solc",
    "version": "0.5.16+commit.9c3226ce.Emscripten.clang"
  },
  "schemaVersion": "3.2.3",
  "updatedAt": "2020-08-18T13:09:22.743Z",
  "networkType": "ethereum",
  "devdoc": {
    "methods": {}
  },
  "userdoc": {
    "methods": {}
  }
}